:100000000C946F170C9497170C9497170C949717E0
:100010000C9497170C9497170C9497170C949717A8
:100020000C9497170C9497170C9497170C94971798
:100030000C9497170C9497170C9497170C94971788
:100040000C9436220C9497170C94A6220C948022C0
:100050000C9497170C9497170C9497170C94971768
:100060000C9497170C949717001113FEFB0801C10D
:10007000039F20FFFE0BFE08FE00000003000102AC
:100080000808030000C0C0C0808000C0C003030394
:10009000060105A0A0A007080808000014147E2887
:1000A00028FC5050050A0A0600FF2078A8A0F07826
:1000B00028A8F0200A08100B00006600DA00D4001F
:1000C000D5806B400B4013401180080808090000E0
:1000D0003068683058CCCF76010303040105808076
:1000E00080040A0A0500FE102060C0C0C0C0602065
:1000F00010040A0A0500FE80406030303030604055
:100100008005050506000320A870A8200505050642
:1001100000012020F820200204040300FEC0C0409B
:1001200080030101040003E0020202030000C0C0DA
:1001300004080805000010102020404080800508B9
:100140000806000070D8D8D8D8D8D8700408080697
:10015000010060E06060606060F005080806000073
:1001600070D8D8183040F8F805080806000070D894
:10017000D83018D8D8700508080600003838585804
:1001800098F81838050808060000F8F080F018D82C
:10019000D87005080806000070D8C0F0D8D8D8700C
:1001A000040808060000F0F01020206060600508D8
:1001B0000806000070D8D870D8D8D870050808068E
:1001C000000070D8D8D87818D87002050503000050
:1001D000C0C000C0C00207070300FEC0C000C0C00E
:1001E00040800605050700010C30C0300C050303F4
:1001F000060002F800F8060505070001C0300C30C3
:10020000C005080806000070D8183040006060097A
:100210000A140A00FF1C00630041009E80B680B6ED
:10022000809B00400060001E0009081008FF0008C5
:10023000001C001C00260026007F004300E780070A
:100240000808080000FC66667C666666FC0708080D
:100250000800003A46C2C0C0C2423C080808090073
:1002600000FC626363636362FC060808070000FC2D
:10027000646878686464FC060808070000FC64642D
:1002800068786860F00708080800003A46C2C0CEE7
:10029000C6463A0908100A0000F780630063007F31
:1002A00000630063006300F780040808050000F0A5
:1002B000606060606060F00608080700003C181885
:1002C00018D8D89870090810090000F3006200647B
:1002D0000068007C0066006300F3800608080700E1
:1002E00000F0606060606464FC0B08100C0000F1BA
:1002F000E071C05AC05AC05AC04CC04CC0EDE008B2
:100300000808090000C762727A5E4E46E2070808D4
:100310000800003844C6C6C6C644380708080800A6
:1003200000FC6666667C6060F00809090800FF381A
:1003300044C6C6C6F66C3D06080808090000FC66FF
:1003400066647C6666F706080807000074CCC4F093
:100350003C8CCCB8060808070000FCB4B430303040
:100360003078080808090000F76262626262623C45
:10037000080808090000F7626234343418180B08C2
:10038000100C0000F6E0664066406B406B403B801E
:1003900031803180080808090000F76274381C2E8B
:1003A00046EF080808090000F76234341818183CB2
:1003B000060808070000FC8C1C3870E0C4FC030A27
:1003C0000A0400FEE0C0C0C0C0C0C0C0C0E0040855
:1003D000080500008080404020201010030A0A0415
:1003E00000FEE06060606060606060E00506060638
:1003F00000022020705088880601010600FEFC03E0
:100400000202040006C060040505050000E030702B
:10041000B0F0060808070000C0C0C0D8ECCCCCB8CB
:1004200005050506000070C8C0C87006080807006A
:10043000001C0C0C7CCCCCDC6C05050506000070A7
:10044000D8F8C078050808050000386860F06060DA
:1004500060F00608080600FE0870D8D8707C8CF89A
:10046000060808070000C0C0C0D8ECCCCCCC0408FB
:1004700008050000606000E0606060F0030A0A05A3
:1004800000FE606000E06060606060C00608080612
:100490000000C0C0C0D8F0F0D8DC04080805000097
:1004A000E0606060606060F00A050A0B0000D980BF
:1004B000EEC0CCC0CCC0CCC0060505070000D8EC0F
:1004C000CCCCCC06050507000078CCCCCC78060750
:1004D000070700FED8ECCCCCF8C0E0070707070000
:1004E000FE7CCCCCDC6C0C1E040505050000D0F0B5
:1004F000C0C0C004050505000070C0F030E003076F
:100500000704000040C0E0C0C0C060060505070049
:1005100000CCCCCCDC6C060505070000EC6868302C
:100520003009050A0A0000ED806D006D00360036C6
:1005300000060505070000EC683058DC06070707D1
:1005400000FEEC68683030E0C0050505060000F8E4
:10055000B060C8F8040A0A0500FE30606060C06040
:100560006060603001080806020080808080808022
:100570008080040A0A0500FEC06060603060606030
:1005800060C006020207000374B8FFFFFFFFFFFF11
:10059000FFFFFFFFFFFFFFFFFFFFFFFFFFFFFFFF6B
:1005A000FFFFFFFFFFFFFFFFFFFFFF000000030053
:1005B000010208080300FEC0C0004040C0C0C005E2
:1005C00007070600FF0878D0D0E870400708080841
:1005D00000003C6460FC3062BEDC070505080001D9
:1005E000BA6C6C6CBA080808090000F76234361857
:1005F0003E183C0108080602008080800080808050
:1006000080040A0A0500FE7090C060B0D06030908F
:10061000E0030202040006A0A00808080900003C4C
:10062000429DA5A19D423C030606040002C020E0B5
:10063000A000E0060505070000246CD86C24050323
:1006400003060002F80808030101040003E008089B
:10065000080900003C42BDA5B9AD423C04010105BA
:100660000006F003040404000440A0A040050505B2
:1006700006000120F82000F803040403000460A031
:1006800040E0030404030004E04020C0030202042D
:10069000000660C00607070700FECCCCCCDCECC02F
:1006A000C00708080800007EF4F4741414143E0215
:1006B0000202030003C0C00203030401FE8040C025
:1006C00003040403000440C040E0040606050002E1
:1006D0006090906000F006050507000090D86CD887
:1006E0009008080809000044C448E812162F2208A0
:1006F000080809000044C448E81315222708080820
:10070000090000E44428C812162F22050808060034
:10071000FE3030001060C0D870090B1608FF0030A2
:10072000001800000008001C001C00260026007FA6
:10073000004300E780090B1608FF0006000C0000CC
:100740000008001C001C00260026007F004300E774
:1007500080090B1608FF001C003600000008001C72
:10076000001C00260026007F004300E780090B16CE
:1007700008FF001A002C00000008001C001C0026C6
:100780000026007F004300E780090B1608FF0014D5
:10079000001400000008001C001C00260026007F3A
:1007A000004300E780090B1608FF0018002400181A
:1007B0000008001C001C00260026007F004300E704
:1007C000800A08100B00003FC01640168027803EAC
:1007D0008046404640EFC0070A0A0800FE3A46C27B
:1007E000C0C0C2423C1030060B0B07000060300056
:1007F000FC646878686464FC060B0B070000183022
:1008000000FC646878686464FC060B0B0700003821
:100810006C00FC646878686464FC060B0B070000DD
:10082000282800FC646878686464FC040B0B0500ED
:1008300000C06000F0606060606060F0040B0B0559
:100840000000306000F0606060606060F0050B0BDD
:1008500005000070D800F0606060606060F0040B1C
:100860000B050000505000F0606060606060F008B0
:100870000808090000FC6263F3636362FC080B0B69
:100880000900001A2C00C762727A5E4E46E2070B1E
:100890000B0800003018003844C6C6C6C6443807E6
:1008A0000B0B0800001830003844C6C6C6C64438D2
:1008B000070B0B080000386C003844C6C6C6C64497
:1008C00038070B0B0800003458003844C6C6C6C6AB
:1008D0004438070B0B0800002828003844C6C6C659
:1008E000C64438050505060001D8702070D80708F1
:1008F000080800003A44CED6D6E644B8080B0B09E7
:100900000000301800F76262626262623C080B0B02
:100910000900000C1800F76262626262623C080B18
:100920000B0900001C3600F76262626262623C08DA
:100930000B0B090000141400F76262626262623CF1
:10094000080B0B0900000C1800F762343418181853
:100950003C070808080000E07C6666667C60F007DB
:1009600008080800003C66666C666666EC040808C9
:10097000050000C06000E03070B0F0040808050019
:1009800000306000E03070B0F0050909050000207B
:1009900070D800E03070B0F005080805000068B0BD
:1009A00000E03070B0F0040808050000A0A000E0EE
:1009B0003070B0F0040808050000609060E030700E
:1009C000B0F0080505090000EE9B7FD8EF0507078A
:1009D0000600FE70C8C0C870206005080806000048
:1009E00060300070D8F8C078050808060000306054
:1009F0000070D8F8C0780509090600002070D800FA
:100A000070D8F8C07805080806000050500070D86B
:100A1000F8C078040808050000C06000E06060606D
:100A2000F0040808050000306000E0606060F00538
:100A300009090500002070D800E0606060F004083B
:100A400008050000A0A000E0606060F0060808074C
:100A50000000C8709078CCCCCC780608080700005D
:100A600068B000D8ECCCCCCC060808070000603099
:100A70000078CCCCCC780608080700001830007845
:100A8000CCCCCC780609090700002070D80078CCBF
:100A9000CCCC7806080807000034580078CCCCCCC1
:100AA0007806080807000050500078CCCCCC7805B8
:100AB00005050600012000F800200607070700FFD3
:100AC0000478DCECCC788006080807000060300071
:100AD000CCCCCCDC6C060808070000183000CCCC6D
:100AE000CCDC6C0609090700002070D800CCCCCC07
:100AF000DC6C060808070000505000CCCCCCDC6C45
:100B0000060A0A0700FE183000EC68683030E0C0C2
:100B1000060A0A0700FEC0C0C0D8ECCCCCF8C0E082
:100B2000060A0A0700FE505000EC68683030E0C04A
:100B3000004744E8EF1D000000002A3A0026F81D97
:100B40000012143C15021100C00001C00001C000D9
:100B500001C000C1C100F0C3C0F8CFC07CDF000FEE
:100B6000FC0003E00003E0000FFC003CDF00F8CFD6
:100B700080F0C38040C18001C00001C00001C000FE
:100B800001800011113314010500C00001C00001F3
:100B9000C00001C00001C00001C00001C00001C0D0
:100BA00000FFFF80FFFF8001C00001C00001C00006
:100BB00001C00001C00001C000018000070D0D0B45
:100BC00002F9083CFEFE1E1E1E1C1C383060400E42
:100BD000020410010B7FFCFFF80606060B03FF382A
:100BE0007CFCFCF870142E8A1701F800003000001D
:100BF000F00000F00000E00001E00001C00001C0D2
:100C00000003C00003800007800007800007000089
:100C10000F00000F00000E00001E00001C00001C52
:100C200000003C00003800007800007800007000F0
:100C300000F00000E00000E00001E00001C000035F
:100C4000C00003C000038000078000078000070089
:100C5000000F00000E00001E00001E00001C00001F
:100C60003C00003C0000380000780000700000F0FC
:100C70000000C00000131D5717020001F80007FC18
:100C8000000E1E001C0F001807803807803803C0B4
:100C90007003C07003C07003E0F001E0F001E0F009
:100CA00001E0F001E0F001E0F001E0F001E0F0012E
:100CB000E0F001E0F001C07801C07803C078038063
:100CC0003C03803C03001E07000F0E0007FC0003DE
:100CD000F000111D5717030000600001E0000FE055
:100CE000007FE000FFE00001E00001E00001E00023
:100CF00001E00001E00001E00001E00001E000018E
:100D0000E00001E00001E00001E00001E00001E09E
:100D10000001E00001E00001E00001E00001E0006E
:100D200001E00001E00003F0003FFE007FFF8011C2
:100D30001D5716020001F80007FE001C1F00380FA7
:100D400000780F80700780F00780E0078000078040
:100D5000000780000F00000F00001E00001E0000B2
:100D60003C0000780000F00000F00001E00003C04B
:100D7000000780000F00000F00001E00803C008074
:100D8000780080F00180FFFF80FFFF80121D571662
:100D9000010001F80007FE001E1F003C0F0038078D
:100DA00080780780700780000780000700000F0030
:100DB000001E00003C0000F80003FE00003F0000A1
:100DC0000F800007800003C00003C00003C00003C1
:100DD000C00003C00003C0000780800780E00F0050
:100DE000783E003FFC0007E000131D57170100008C
:100DF0000300000F00001F00003F00007F00007F85
:100E00000000EF0000CF0001CF00038F00038F0030
:100E1000070F000E0F000E0F001C0F00180F0038F8
:100E20000F00700F00700F00FFFFE0FFFFC0000F0A
:100E300000000F00000F00000F00000F00000F0067
:100E4000003F8001FFE0121D5717020000008000E4
:100E500001801FFF001FFE0018000018000018008E
:100E6000001800003800003800003800003FF00093
:100E70003FFC00783F00200F000007800007C00003
:100E800003C00003C00003C00003C00003C0000390
:100E900080000780800780E00F00783E003FFC0064
:100EA00007F000121D57170300000700003F000065
:100EB000F80001E00003C0000F00000E00001E005B
:100EC000003C000038000078000078F80077FE0051
:100ED000FE1F00F80F80F00780F007C0F003C0F09D
:100EE00003C0F003C0F003C0F803C07803807803A8
:100EF000803C07803C07001F0E000FFC0003F00041
:100F0000131B511702007FFFC07FFFE06001C0404C
:100F100003C0C00380000380000700000700000E2C
:100F200000000E00001C00001C000038000038000B
:100F300000380000700000700000E00000E00001D8
:100F4000C00001C00003C0000780000780000F0040
:100F5000000F00001C0000121D5716020003F800CD
:100F60000FFE001C1F00380F0030078070078070D4
:100F70000780700780700700780F003E1E001FBCBE
:100F8000000FF00003FC0007FE001E3F003C0F8036
:100F90007807C07007C0F003C0F003C0F003C0F0D2
:100FA00003C0F003807807807C07003E0E001FFC22
:100FB0000007E000131E5A1702FF01F80007FE00A9
:100FC0000E1F001C0F803807807803C07003C0F02C
:100FD00003E0F001E0F001E0F001E0F001E0F801F1
:100FE000E07803E07C07E03E0DE01FF9E007E1C098
:100FF0000003C00003C0000780000780000F00004E
:101000001E00003C0000780000F00003E0001F809C
:10101000003800000617170B03FF387CFCFCF87043
:101020000000000000000000000000387CFCFCF81C
:1010300070003B39ECF21906D110A3207FF721F79D
:101040001FF7000000090000051E1E0B03FF307093
:10105000F070707070707070707070707070707010
:101060007060606000000070F8F8F8700B0D1A11E5
:10107000031070E0F1E0F1E0F1E0F1E070E060C059
:1010800060C060C060C060C060C060C01117451320
:10109000020200C200018600018600018E00038C5E
:1010A00000030C00030C003FFF803FFF8006180088
:1010B0000638000E30000C30000C3000FFFE00FF40
:1010C000FE0018600018E00030C00030C00030C0E2
:1010D0000071C000618000101E3C1301FD01800101
:1010E00080018003E00FFC39FE319C7188718071B2
:1010F0008079803D803F801FE007F801FC01BE0140
:101100008F018F0187C187C187E18EF18EFFFC3F80
:10111000F00FC00180018001801919641B01FF0FCD
:101120008006003FC01C0071E0380070E03800E02D
:10113000707000E070E000E070E000E071C000E07E
:1011400073800070E7000078E700003FCE3C001F8E
:101150001CFE00001DCF000039C700007383800013
:10116000E3838000E3838001C38380038383800360
:101170008383800701C7000E01C7001C00FE001812
:10118000007800181C541B020000F80001FC00034A
:101190001E00070E000E0E000E0E000E0E000E0CAE
:1011A000000E1C000F380007700007C0000783FF07
:1011B0000F87FF1DC1F239E0F070F070707070E0C1
:1011C0007870E03C70E01EE0E00FE0E007C0F00364
:1011D000C07803F03C1EF81FFC7F07E038040D0DBB
:1011E0000A031070F0F0F0F07060606060606060A2
:1011F00009254A0D03FA0080038007000E000C0049
:101200001C0018003800380070007000700070007A
:10121000E000E000E000E000E000E000E000E000CE
:10122000E000E000E000E00070007000700070007E
:10123000380038001C001C000E00070003800080EE
:1012400009254A0D01FA8000E000700038001C00FA
:101250001C000E000E000E000700070007000780AC
:101260000380038003800380038003800380038066
:1012700003800380038007000700070007000E00BB
:101280000E000C001C00180038007000E000800008
:1012900010102012010E0180018001806184718E86
:1012A000799F1FF807C003C01FF8799EF18E218631
:1012B0000180018001800F0E1C1001040380038057
:1012C0000380038003800380FFFEFFFE0380038012
:1012D0000380038003800380060A0A0902FA3CFCAB
:1012E0003C1C1C18183020400B02040D01097FE043
:1012F000FFE00505050902FF70F8F8F87011267285
:101300001301F9000180000700000700000700003A
:101310000E00000E00000E00001C00001C00003833
:1013200000003800003800007000007000007000FD
:1013300000E00000E00001C00001C00001C00003A7
:1013400080000380000380000700000700000E00FB
:10135000000E00000E00001C00001C00001C00001D
:10136000380000380000700000700000700000E0DD
:101370000000C0000011184813010003E0000FF83E
:10138000001C3C00381E00300E0070070060070093
:10139000600780E00380E00380E00380E00380E0FA
:1013A0000380E00380E00380E00380F00300700727
:1013B000007007007806003C0E001E1C000FF800AD
:1013C00007E0000E1830130300018007803F80FF04
:1013D00080038003800380038003800380038003F5
:1013E00080038003800380038003800380038003E5
:1013F00080038003800FE07FFC0E1830130200038F
:10140000E00FF81878303C701C601CE01C001C00D9
:101410001800380030007000E001C0018003800730
:10142000000E001C0018043004700CFFFCFFFC0FC1
:10143000183013010003E00FF81C78383C701C7062
:101440001C001C00180030006003E003F8003C00A2
:101450001C000E000E000E000E000E001C401CF0C2
:10146000783FF00FC010183013010000180078000A
:101470007800F801F801B80338073806380C381C32
:10148000381838303870386038FFFFFFFE003800F9
:1014900038003800380038007C03FF0F1830130183
:1014A0000000041FFC1FF81800180018003000305E
:1014B0000030003FE03FF8307C401C001E000E0072
:1014C0000E000E000E000E001C401CF0783FF00FC6
:1014D000C00F1830130200003800F003C007000EE0
:1014E000001C0038007000700063E0EFF8F83CF07A
:1014F0001CE01EE00EE00EE00EE00E700E700C38E8
:101500001C3C381FF007C00F172E1302007FFEFF90
:10151000FEC00CC00C801C001800380030007000A9
:1015200060006000E000C001C0018003800300078C
:101530000007000E000E001C0038000F18301302C8
:10154000000FC03FF07878703CF01CE01CE01CF00D
:101550001878303E601FC007F01878303C701E606D
:101560000EE00EE00EE00EE00C701C7C383FF00F39
:10157000C00F19321302FF07C00FF03878303C70EB
:101580001C601CE00EE00EE00EE00EF00E701E7807
:101590003E3FEE0F8C001C001C001800380070004D
:1015A000E001C007801E0030000513130902FF7818
:1015B000F8F8F86000000000000000000070F8F883
:1015C000F8700618180902FA78F8F8F860000000B8
:1015D0000000000000003CFC3C1C1C18183020409F
:1015E0000F0D1A1201050002001E00FE03F01FC0BD
:1015F0007E00F000FC003F8007E001FC003E000C94
:101600000F08101201077FFEFFFE0000000000001F
:1016100000007FFEFFFE0F0D1A1201056000FC00A6
:101620003F000FE001FC007E001E007E03F01FC0A3
:101630007E00F800C0000E1E3C1102FF07E01FF004
:1016400038787038E01CE01CE01CC01C001C00381E
:101650000038007000F000E001C003800380070044
:101660000700070007000700000000000000070057
:101670000F800F800F8007001E21842001F90007D2
:10168000F800003FFE0000F01F8001C007C003000B
:1016900001E0060000F00C0000701800007838032C
:1016A000C638300FFC38701C3C3C70381C1C607015
:1016B0001C1CE0601C1CE0E01C1CE0E01C1CE0E0CA
:1016C0001C1CE0E01C1CE0E01C1CE0E01C18F0F01E
:1016D0001C3870701C3070783C60783C5EE0381FBD
:1016E0008F803C0F0F001E0000001F0000000F80C5
:1016F000002007C000C001F80F8000FFFE00001F9F
:10170000F00017194B180000000800003800003CDA
:1017100000003C00006C00006E00006E0000C6007F
:1017200000C70000C700018300018380018380039C
:10173000018003FFC003FFC00600E00600E00600D2
:10174000E00C00700C00700C00701800381C007861
:10175000FF01FE13194B1601001FF000FFFE001CD5
:101760001F001C07801C03801C03801C03801C03BB
:10177000801C07001C06001C1C001FFE001FFF0031
:101780001C0F801C03C01C01E01C00E01C00E01CBE
:1017900000E01C00E01C01E01C01C01C07803FFFB2
:1017A00000FFFC0013194B15010000FE0003FFC0F1
:1017B0000707C00C0180180000380000700000709E
:1017C0000000700000E00000E00000E00000E00029
:1017D00000E00000E00000E00000E0000070000019
:1017E0007000007800003C00401E01E00F87800779
:1017F000FE0001F80015194B1801001FF800FFFF4B
:10180000001C0F801C03C01C01E01C00F01C0070B9
:101810001C00701C00781C00381C00381C00381C90
:1018200000381C00381C00381C00381C00701C00DC
:10183000701C00701C00E01C01E01C03C01C0F8029
:101840003FFE00FFF80012194B140100FFFF003F9C
:10185000FF001C03001C01001C01001C00001C00F8
:10186000001C00001C00001C00001FFC001FFC00EE
:101870001C08001C00001C00001C00001C00001CB8
:1018800000001C00001C00001C00401C00C01C01CB
:10189000803FFF80FFFF8011194B130100FFFF8085
:1018A0003FFF801C03001C01001C01001C00001CE9
:1018B00000001C00001C00001C00001FFC001FF8A2
:1018C000001C18001C00001C00001C00001C000074
:1018D0001C00001C00001C00001C00001C00001C60
:1018E00000003E0000FF800015194B170100007F2B
:1018F0000001FFC00703E00E00C01C00003800001C
:10190000300000700000700000E00000E00000E027
:101910000000E00000E00FF8E001E0E000E0E0009F
:10192000E07000E07000E07800E03C00E01E00E0C5
:101930000F81C007FF8001FC0018194B1A0100FF3E
:1019400081FF3E007C1C00381C00381C00381C0045
:10195000381C00381C00381C00381C00381C0038AB
:101960001FFFF81FFFF81C00381C00381C00381C33
:1019700000381C00381C00381C00381C00381C00C3
:10198000381C00383E007CFF81FF0919320C010031
:10199000FF803E001C001C001C001C001C001C00E2
:1019A0001C001C001C001C001C001C001C001C0057
:1019B0001C001C001C001C001C001C001C003E0025
:1019C000FF800F20400CFCF907FE00F8007000704B
:1019D0000070007000700070007000700070007087
:1019E0000070007000700070007000700070007077
:1019F000007000700070007000700060006000E017
:101A000000C031807F00FC0016194B170100FF87D2
:101A1000F83E01C01C03801C07001C0E001C0C00BB
:101A20001C18001C38001C70001CE0001DC0001FAA
:101A300080001FC0001DE0001CE0001C70001C386E
:101A4000001C3C001C1E001C0F001C07801C03C057
:101A50001C03E03E01FCFF80F012194B130100FF54
:101A600080003E00001C00001C00001C00001C0048
:101A7000001C00001C00001C00001C00001C0000DA
:101A80001C00001C00001C00001C00001C00001CAE
:101A900000001C00001C00001C00001C00C01C00FA
:101AA000801E01803FFF80FFFF801E19642001001F
:101AB000FE0001F81E0003E01F0003E01F0003E02A
:101AC0001F0007E01B8006E01B800EE019C00CE041
:101AD00019C00CE018E01CE018E018E018E038E04D
:101AE000187030E0187070E0183860E0183860E066
:101AF000181CE0E0181CC0E0181FC0E0180F80E0C0
:101B0000180F80E0180780E0180700E03C0701E0AC
:101B1000FF0207FC18194B1A0100F801FF3C007C7A
:101B20001E00381E00381F00381F80381D80381DE9
:101B3000C0381CE0381C60381C70381C38381C1C3D
:101B4000381C1C381C0E381C07381C07381C03B8FE
:101B50001C03F81C01F81C00F81C00F81C00783E5F
:101B60000038FF801815194B18010000FC0003FF16
:101B7000000707800C03C01801E03800E070007017
:101B8000700070600078E00038E00038E00038E075
:101B90000038E00038E00038E00038F00030700035
:101BA000707000607800E03C00C01E01800F0700EC
:101BB00007FE0001F80012194B1501001FF800FF85
:101BC000FE001C1F001C07801C03C01C01C01C0160
:101BD000C01C01C01C01C01C01C01C03801C07806C
:101BE0001C0F001DFE001CF8001C00001C00001C47
:101BF00000001C00001C00001C00001C00001C0059
:101C0000003E0000FF8000181F5D1801FA00FC0074
:101C100003FF000707800C03C01801E03800E070E4
:101C20000070700070600078E00038E00038E0007C
:101C300038E00038E00038E00038E00038F00030EC
:101C40007000707000703800E03C00C01E01C00FD2
:101C5000078007FE0001FC00000E000007000003E3
:101C6000820001E30000FE00003C15194B16010044
:101C70001FF000FFFE001C1F001C07001C07801C3B
:101C800003801C03801C03801C03801C07001C06AF
:101C9000001C1C001FF0001C70001C38001C3800C9
:101CA0001C1C001C1E001C0E001C07001C07801CB6
:101CB00003801C03C03E01F8FF81F00F19321302AC
:101CC0000007E01FF8787C7018E000E000E000F00A
:101CD00000F8007E003F801FE007F801FC007C0058
:101CE0001E001E000E800E800EC01CE01CF078FF4F
:101CF000F01F8015194B1600007FFFF8FFFFF8C09A
:101D00007018C070188070100070000070000070B3
:101D10000000700000700000700000700000700093
:101D20000070000070000070000070000070000083
:101D3000700000700000700000700000700000F87B
:101D40000003FE0018194B1A0100FF81FF3E007CC2
:101D50001C00381C00381C00381C00381C00381CC3
:101D600000381C00381C00381C00381C00381C00CF
:101D7000381C00381C00381C00381C00381C003887
:101D80001C00700E00700E00700F00E007C1C00351
:101D9000FF80007E001919641A0000FF807F801CFC
:101DA000000E001E000C000E001C000E0018000F9C
:101DB00000180007003800070030000380300003DF
:101DC00080700003C0600001C0E00001C0E00001BD
:101DD000E0C00000E1C00000E18000007180000070
:101DE000738000007B0000003B0000003F0000000B
:101DF0003E0000001E0000001E0000000800002140
:101E0000197D220000FF80C07F801C00C00E001CD6
:101E100000C00C001C01E00C000E01E01C000E01D3
:101E2000E01C000E03F018000E03701800070330CA
:101E3000180007073838000706383800070618303A
:101E400000070E1C3000038C1C3000038C0E700049
:101E5000039C0E600003980E600001D8076000012B
:101E6000F807600001F007E00001F003C00001F096
:101E700003C00000E003C00000E001C00000C0019A
:101E8000800017194B190100FF87FC3C00F01C0073
:101E9000E01E01C00F018007038007870003C60012
:101EA00001EE0000FC0000FC00007800007800005B
:101EB0007C0000FE0001CE0001CF000387800303F9
:101EC000800703C00E01E00C00E01C00F03C00F8AD
:101ED000FF03FE17194B180000F801FE3C00781EA6
:101EE00000600E00E00700C00781C003818003C3CB
:101EF0008001C30000E70000EE00007E00007C00CF
:101F000000380000380000380000380000380000B9
:101F10003800003800003800003800003800007C2D
:101F20000001FF0012194B1501003FFFC03FFFC029
:101F3000300380200780600F00600E00001E00004C
:101F40001C0000380000780000700000F00001E084
:101F50000001C00003C0000380000700000F000064
:101F60000E00001E00403C00403800C07800C07FDA
:101F7000FFC0FFFFC009254A0C03FAFF80FF80E085
:101F800000E000E000E000E000E000E000E000E051
:101F900000E000E000E000E000E000E000E000E041
:101FA00000E000E000E000E000E000E000E000E031
:101FB00000E000E000E000E000E000E000E000E021
:101FC00000FF80FF801126721301F9C00000E000BD
:101FD0000070000070000030000038000038000081
:101FE0001800001C00001C00000E00000E0000067F
:101FF00000000700000700000300000380000380CA
:102000000001C00001C00000C00000E00000E000CE
:102010000060000070000070000038000038000010
:102020001800001C00001C00000C00000E00000E38
:102030000000070000070000030000018009254A96
:102040000D01FAFF80FF800380038003800380037B
:102050008003800380038003800380038003800368
:102060008003800380038003800380038003800358
:102070008003800380038003800380038003800348
:10208000800380038003800380FF80FF801013267D
:1020900014020B0080038003C003C007E006E00EBB
:1020A000E00C700C701C7818381838301C301C701C
:1020B0001C600E600EE00780061102061301FB7F14
:1020C000FF80FFFF000809090D0114E0F0703838A7
:1020D0001C0E060310122412020003E01FF03878D1
:1020E0007038F038C0380038007807F81C3870387D
:1020F0006038E038E038E078F1B97F3F3C18121ED4
:102100005A1400000C00007C0000BC00001C000001
:102110001C00001C00001C00001C00001C00001C17
:1021200000001C00001C00001C3C001CFF001D8F58
:10213000001F07801E03801C03C01C01C01C01C0BF
:102140001C01C01C01C01C01C01C01801C01801CA2
:1021500003801E03001F860007FC0001F0000F1221
:102160002411020001F807FE1C1C380C70047000DA
:10217000E000E000E000E000E000E000F0007004BB
:1021800078063E1C1FF807E0131E5A1502000003D4
:1021900000003F00000F00000700000700000700DC
:1021A000000700000700000700000700000700000C
:1021B000070003F7000FFF001C1F00380F00300757
:1021C00000700700600700E00700E00700E007007C
:1021D000E00700E00700F00700700F00781F003CE8
:1021E00037E01FE7C00783000E122412020003C06D
:1021F0000FF01C783038701C601CE01CFFFCFFF8EE
:10220000E000E000E000F0007004780C3C381FF0C3
:1022100007C00F1E3C0C0100007801FE031C0608DD
:102220000E000C000C001C001C001C001C001C00FC
:102230007FF0FFE01C401C001C001C001C001C0068
:102240001C001C001C001C001C001C001C001C00AE
:102250003E00FFC0121B511301F703E0C00FFFC087
:102260001C3F00381C00700E00700E00700E0070D5
:102270000E00781C003C38001FF00007C00006006C
:10228000000C00001C00001FE0000FFE000C3F804F
:102290001803C07001C0E001C0E001C0E00380F09D
:1022A00003807C0F003FFC0007F000151E5A16014A
:1022B000000C0000FC00007C00001C00001C000062
:1022C0001C00001C00001C00001C00001C00001C66
:1022D00000001C00001C1F001C3F801CE3C01D816F
:1022E000C01F01C01E01C01E01C01C01C01C01C0D6
:1022F0001C01C01C01C01C01C01C01C01C01C01C71
:1023000001C01C01C03E03C0FF8FF8091B360B0142
:10231000001C003C003C003C0018000000000000D5
:102320000000000C00FC003C001C001C001C001CF9
:10233000001C001C001C001C001C001C001C001CBD
:10234000001C003C00FF800B24480AFCF700E00161
:10235000E001E001E000C00000000000000000001B
:102360006007E001E000E000E000E000E000E000E5
:10237000E000E000E000E000E000E000E000E0005D
:10238000E000E000E000E000C000C001C0018023E8
:1023900000FE00F800131E5A1401000C0000FC009F
:1023A000003C00001C00001C00001C00001C000081
:1023B0001C00001C00001C00001C00001C00001C75
:1023C0001FE01C07001C0E001C1C001C30001CE041
:1023D000001DC0001F80001DC0001DE0001CF0009B
:1023E0001C78001C38001C1C001C1E001C0F003C2C
:1023F0000780FF03E0091E3C0B01000C00FC007C81
:10240000001C001C001C001C001C001C001C001CEC
:10241000001C001C001C001C001C001C001C001CDC
:10242000001C001C001C001C001C001C001C001CCC
:10243000001C003C00FF801F12482001000C1E03FE
:10244000C0FC7F0FE03CC798F01D83B0701F03E015
:10245000701E03C0701C0380701C0380701C0380FE
:10246000701C0380701C0380701C0380701C038030
:10247000701C0380701C0380701C0380703C07C0BC
:10248000F0FF9FF3FE1512361601000C0F00FC3F03
:10249000803C63C01D81C01D01C01E01C01E01C063
:1024A0001C01C01C01C01C01C01C01C01C01C01CBF
:1024B00001C01C01C01C01C01C01C03E03C0FF8F35
:1024C000F810122414020003E00FF81C3C301E70B8
:1024D0000E600FE007E007E007E007E007E007F025
:1024E00006700E780C3E381FF007C0121B51150104
:1024F000F70C1C00FC7F003C8F801D07801E0380B2
:102500001E03C01C01C01C01C01C01C01C01C01C5A
:1025100001C01C01801C01801C03801E03001F06DB
:10252000001DFC001C78001C00001C00001C0000AA
:102530001C00001C00001C00001C00003E0000FFEE
:102540008000131B511502F701F18007FB001C1FCF
:1025500000380F00300700700700600700E0070038
:10256000E00700E00700E00700E00700F007007068
:102570000F00781F003C37001FE7000787000007A7
:102580000000070000070000070000070000070028
:10259000000700000700003FE00E12241001000CAD
:1025A0003CFCFC3D8C1D0C1F041E001E001C001C6E
:1025B000001C001C001C001C001C001C001C001E39
:1025C00000FF800B12240F02001F007F8073C0E108
:1025D00080E080F000F8007E001F000FC003E001E3
:1025E000E080E080E0C0E0E1C0FF803E000D1932F5
:1025F0000E000004000C001C001C001C001C001C31
:10260000007FF8FFF01C201C001C001C001C001C9C
:10261000001C001C001C001C001C001C001C001ED8
:10262000380FF007801512361500000C00C0FC0FA3
:10263000C01C01C01C01C01C01C01C01C01C01C089
:102640001C01C01C01C01C01C01C01C01C01C01C1D
:1026500001C01C03C01C07C01E1DC80FF1F007C03D
:10266000C0131236140000FF07E03C01C01C0180BB
:102670001C03800E03000E03000E06000706000771
:102680000600038C00038C00039C0001D80001D8D5
:102690000000F00000F00000F0000040001C1248B4
:1026A0001C0000FF0307F03C0700C01C0700C01C13
:1026B0000781801C0F81800E0F81800E0DC3800E5C
:1026C00019C3000619C3000718E3000730E600032A
:1026D00030760003B0760003E07C0001E03C0001AE
:1026E000E03C0001C03C00018010001412361400D0
:1026F000007F8FE01E03800E0300070600078C009A
:10270000039C0001D80000F00000F00000F0000180
:10271000B800019C00031E00060E000E07000C030B
:10272000803C03C0FF0FF0141B5114FFF77F83F0B0
:102730001E00E00E00C00E00C007018007018007E8
:10274000030003830003830001C60001C60001C625
:102750000000EC0000EC0000780000780000780039
:1027600000300000300000600000600000E0000168
:10277000C0004380007F0000FE00007C00000F12BC
:10278000241201003FFE3FFE601C6038403800709C
:1027900000E001C001C00380070007000E001C021A
:1027A000380238067FFEFFFE0B254A0E02FA004073
:1027B00001E00380070006000E000E000E000E0070
:1027C0000E000F00070007000700070007000E00BB
:1027D0001C007C00FE000F00070007000700070038
:1027E00007000F000E000E000E000E000E000E007F
:1027F0000700030001C000400329290903F860E035
:10280000E0E0E0E0E0E0E0E0E0E0E0E0E0E0E0E0C8
:10281000E0E0E0E0E0E0E0E0E0E0E0E0E0E0E0E0B8
:10282000E0E0E0E0E0E0C00B254A0E01FA40007075
:102830000038001C000C000E000E000E000E000EF2
:10284000001E001C001C001C001C001C000E000FC1
:10285000C003E007000E000C001C001C001C001C44
:10286000001E000E000E000E000E000E000C001CDC
:102870000038007000C0001206121401090F00C0D9
:102880001FC0803FE10063FF00C0FE00803800FFF2
:10289000FFD0FFE0FFC1FFD13FC0FF14FFD23FC018
:1028A000FF14FFD0FFFE00000000240027002A00D4
:1028B000000000002300260029000000000800029C
:1028C00001000003040700000000000000000102F6
:1028D00004081020408001020408102001020408AE
:1028E000102000000000250028002B000404040430
:1028F00004040404020202020202030303030303AA
:1029000001040600FF05010301FA20FFFF05FF0592
:10291000FF0700401215458080800080053242A0EC
:10292000A0024545A0F0A0F0A001364640E0C0203E
:10293000E040023545802040802002454540A040CF
:10294000A050151242808011264640808080804031
:10295000012646804040404080023545A040E0408E
:10296000A00235454040E040400122424080043111
:1029700041E012114180023545202040808002351F
:102980004540A0E0A04002354540C04040E002354F
:102990004540A02040E0023545E0204020C00235FF
:1029A00045A0A0E02020023545E080C020C00235CF
:1029B000456080C0A040023545E02040808002355F
:1029C0004560A040A0C002354540A06020C0121460
:1029D00044800000800125454000004080023545CC
:1029E0002040804020033343E000E0023545804032
:1029F000204080023545C02040004002354560A09F
:102A0000A0806002354540A0E0A0A0023545C0A0EE
:102A1000C0A0C002354540A080A040023545C0A0FE
:102A2000A0A0C0023545E080C080E0023545E080CE
:102A3000C080800235456080A0A060023545A0A01E
:102A4000E0A0A0023545E0404040E00235452020AE
:102A500020A040023545A0A0C0A0A002354580803E
:102A60008080E0023545A0E0E0A0A002354520A02E
:102A7000E0A08002354540A0A0A040023545C0A09E
:102A8000C0808001364640A0A0A04020023545C04D
:102A9000A0C0A0A002354560804020C0023545E0BE
:102AA00040404040023545A0A0A0A0E0023545A02E
:102AB000A0A0E040023545A0A0E0E0A0023545A07E
:102AC000A040A0A0023545A0A0404040023545E00E
:102AD000204080E0122545C0808080C002354580BE
:102AE00080402020022545C0404040C00532424081
:102AF000A0013141E0152242804002344460A0A090
:102B00006002354580C0A0A0C0023444608080606F
:102B10000235452060A0A06002344440A0C060029D
:102B200035452040E0404001354560A06020C002AE
:102B3000354580C0A0A0A00235454000C040E0015E
:102B400036462000202020C002354580A0C0A0A02D
:102B5000023545C0404040E0023444A0E0A0A0025D
:102B60003444C0A0A0A002344440A0A04001354598
:102B7000C0A0C0808001354560A0A0602002344420
:102B8000A0C0808002344460C020C002354540E0CF
:102B9000404020023444A0A0A060023444A0A0A081
:102BA00040023444A0A0E0A0023444A04040A00170
:102BB0003545A0A06020C0023444E02040E001364A
:102BC000462040C040402012154580808080800112
:102BD000364680406040408005424250A0FFFFFFE3
:102BE000FFFFFFFFFFFFFFFFFFFFFFFFFFFFFFFFF5
:102BF000FFFFFFFFFFFFFFFFFFFFFFFFFFFF0700DC
:102C000040121545800080808002354540E080E01C
:102C10004002354520406040A002444490606090EE
:102C2000023545A040E0404012154580800080807C
:102C300001364660C0A06020C0063141A001464672
:102C40006090D0D0906002354560A06000E0034302
:102C50004350A050033242E020043141E003444499
:102C600060F0D060063141E004334340A0400235BB
:102C70004540E04000E0032444C04080C0022545B8
:102C8000C0408040801522424080013545A0A0A070
:102C9000C08002454570D0D050501411418012229E
:102CA00042408003244440C0404002354540A0409B
:102CB00000E0034343A050A001464680808050704E
:102CC000100146468080B0102030014646C040804A
:102CD00050B01002354540004080600235458040CC
:102CE000A0E0A00235452040A0E0A0023545C0404C
:102CF000A0E0A002354560C0A0E0A0023545A0409C
:102D0000A0E0A00235454040A0E0A002454570A0EB
:102D1000F0A0B001364640A080A04080023545803A
:102D2000E0C080E002354520E0C080E0023545602B
:102D3000E0C080E0023545A0E0C080E0023545807B
:102D4000E04040E002354520E04040E002354540AB
:102D5000E04040E0023545A0404040E0024545E00B
:102D600050D050E002454550A0E0E0A0023545803B
:102D700040A0A0400235452040A0A040023545407B
:102D800040A0A04002454570E0A0A040023545A00B
:102D900040A0A040033343A040A002354560A0E01E
:102DA000A0C00235458040A0A0E00235452040A0EB
:102DB000A0E00235454000A0A0E0023545A000A0FB
:102DC000A0E00235452000A0404002354580C0A06B
:102DD000C08001364640A0C0A0E08002354580405A
:102DE00060A060023545204060A06002354560006B
:102DF00060A06002454550A060A060023545A0007B
:102E000060A060023545400060A06002444470B09C
:102E1000A07001354540A08060400235458040A04B
:102E2000C0600235452040A0C060023545C040A0CA
:102E3000C060023545A040A0C060023545804040DA
:102E400040E002354520C04040E002354540A0400A
:102E500040E0023545A000C040E0023545A040609A
:102E6000A04002454550A0C0A0A00235458040408A
:102E7000A040023545204040A0400235454000407A
:102E8000A040023545E00040A040023545A000408A
:102E9000A0400235454000E0004002344460A0A05C
:102EA000C00235458040A0A0600235452040A0A06A
:102EB000600235454000A0A060023545A000A0A0FA
:102EC000600136462040A0E020C00136468080C028
:102ED000A0C080013646A000A0E020C0D822112466
:102EE0001FBECFEFD8E0DEBFCDBF11E0A0E0B1E064
:102EF000EEE0FAE402C005900D92A43EB107D9F7C6
:102F000023E0A4EEB1E001C01D92A136B207E1F7C3
:102F100017E1CFE6D7E104C02197FE010E94FF240C
:102F2000CE36D107C9F70E9499230C9405250C943D
:102F30000000089580E0089520912B0330912C0328
:102F40002817390799F190932C0380932B0300974E
:102F500039F120913E03FC01211129C03596E491FD
:102F6000E0933F030C96FC01849180934003809191
:102F70003F03082E000C990B20914003821B9109FE
:102F800027FD939520914103203441F0829FC00199
:102F9000112426E0969587952A95E1F780934203C0
:102FA0008AE997E190933D0380933C030895213093
:102FB00031F43F96E491E0933F034096D4CF3D96A1
:102FC000E491E0933F030E96CECFFC018081928185
:102FD000980F92832181921760F494819F5F94836C
:102FE0009381890F821710F08FEF820F838381E026
:102FF000089580E00895FC011282808181508383CE
:10300000148208952EE93FE0009709F40895F9012C
:103010003197F1F70197F8CF90E0FC01EE0FFF1F19
:10302000EA58FD4F0190F081E02D82599D4FDC015F
:103030008C919081662319F0892B80830895809567
:103040008923FBCFDB011496ED91FC9130E020E069
:1030500065E00994DB011496ED91FC9130E020E0ED
:1030600062E00994DB011496ED91FC9130E020E0E0
:1030700063E009940F93FC010150040F84A996A901
:10308000941788F0081710F4041778F42150260FCD
:1030900083A995A9961758F0281760F481E02617A0
:1030A00020F40F910895081778F780E0FACF2817D9
:1030B000A8F7FBCF81E0F5CF833081F028F4813091
:1030C00099F08230A9F008958730A9F08830C9F0CE
:1030D0008430B1F4809180008F7D03C080918000A6
:1030E0008F7780938000089584B58F7784BD08958D
:1030F00084B58F7DFBCF8091B0008F778093B00037
:1031000008958091B0008F7DF9CFCF93DF93282F62
:1031100030E0F901E654F74D8491F901E253F74D9F
:10312000D491F901E451F74DC491CC23A1F0811160
:103130000E945C18EC2FF0E0EE0FFF1FE055F74DFA
:10314000A591B491EC91ED2381E090E009F480E049
:10315000DF91CF91089580E090E0FACF1F93CF9355
:10316000DF93282F30E0F901E654F74D8491F901FF
:10317000E253F74DD491F901E451F74DC491CC23BA
:10318000A9F0162F81110E945C18EC2FF0E0EE0FD1
:10319000FF1FEE51F74DA591B4918FB7F894EC91C4
:1031A000111108C0D095DE23DC938FBFDF91CF9142
:1031B0001F910895DE2BF8CF860F911DFC0183A18E
:1031C0008F3F19F0642F0C94AE1808950F931F933E
:1031D000CF938C01C62F8FB780936D02F8946170E6
:1031E00080E00E940C18C1FB662760F981E00E9414
:1031F0000C18C2FB662760F982E00E940C18C3FB22
:10320000662760F983E00E940C18C4FB662760F90A
:1032100084E00E940C18C5FB662760F985E00E94D7
:103220000C18C6FB662760F986E00E940C186C2F0C
:10323000661F6627661F87E00E940C1880916D024A
:103240008FBF41E064E0C8010E94DC1884E090E098
:103250000197F1F740E064E0C8010E94DC1888E2C1
:1032600090E0FC013197F1F70197F1F7CF911F91B1
:103270000F910895CF93DF9390E0FC01E253F74D57
:1032800024918451974DFC0184918823C9F090E0EA
:10329000880F991FFC01EA55F74DA591B491FC01E7
:1032A000EE51F74DC591D49161110DC09FB7F894BF
:1032B0008C91209582238C938881282328839FBF1B
:1032C000DF91CF910895623051F49FB7F8943C910B
:1032D000822F809583238C93E8812E2BEFCF8FB79D
:1032E000F894EC912E2B2C938FBFEACFEF92FF92A4
:1032F0001F93CF93DF93EC01142F79016150673056
:1033000008F0E6C0E62FF0E0E857F64E0C94FF24F4
:103310008F19A31A6F1AA51A891A941AA01A88A5C8
:1033200090E0FC01E451F74DE491F0E0EE0FFF1F57
:10333000EE51F74D25913491309377022093760228
:10334000FC01E253F74DE491E0936E0289A590E011
:10335000FC01E451F74DE491F0E0EE0FFF1FEE5158
:10336000F74D259134913093790220937802FC0136
:10337000E253F74DE491E0936F028AA590E0FC01DF
:10338000E451F74DE491F0E0EE0FFF1FEE51F74DE1
:103390002591349130937B0220937A02FC01E25311
:1033A000F74DE491E09370028BA590E0FC01E451AD
:1033B000F74DE491F0E0EE0FFF1FEE51F74D259130
:1033C000349130937D0220937C02FC01E253F74D4F
:1033D000E491E09371028CA590E0FC01E451F74D7B
:1033E000E491F0E0EE0FFF1FEE51F74D259134917F
:1033F00030937F0220937E02FC01E253F74DE4916B
:10340000E09372028DA590E0FC01E451F74DE49148
:10341000F0E0EE0FFF1FEE51F74D25913491309300
:10342000810220938002FC01E253F74DE491E09386
:1034300073028EA590E0FC01E451F74DE491F0E0B9
:10344000EE0FFF1FEE51F74D25913491309383021B
:1034500020938202FC01E253F74DE491E093740261
:103460008FA590E0FC01E451F74DE491F0E0EE0F00
:10347000FF1FEE51F74D2591349130938502209333
:103480008402FC01E253F74DE491E093750288A9B0
:103490008F3F41F061E00E943A1940E06DE0CE01BB
:1034A0000E94DC187E0183E2E80EF11CE096F70131
:1034B00081917F018F3F49F061E00E943A1961E0FC
:1034C000F701319780810E94AE18CE15DF0579F79C
:1034D00081E0DF91CF911F91FF90EF90089541E03F
:1034E000112319F0113059F440E062E0CE010E943E
:1034F000DC1841E063E0CE010E94DC18E9CF41E036
:10350000123009F040E062E0CE010E94DC1840E099
:10351000F1CF642F0E94E618DBCFF70161917F01A4
:10352000CE010E94E61811501111F7CFD1CFF7014B
:103530006491CE010E94E618FFEFEF1AFF0A1150C6
:103540001111F5CFC5CF61E0D6CF8BA18F3F09F424
:10355000BFCF60E0D0CF3FB7F894809169029091DF
:103560006A02A0916B02B0916C0226B5A89B05C0BF
:103570002F3F19F00196A11DB11D3FBFBA2FA92FF2
:10358000982F8827BC01CD01620F711D811D911DEF
:1035900042E0660F771F881F991F4A95D1F708955B
:1035A000AF92BF92CF92DF92EF92FF920F931F9351
:1035B000CF93DF936C017B018B01040F151FEB018F
:1035C0005E01AE18BF08C017D10759F06991D60146
:1035D000ED91FC910190F081E02DC6010995892BB8
:1035E00079F7C501DF91CF911F910F91FF90EF9077
:1035F000DF90CF90BF90AF900895FC01538D448D24
:10360000252F30E0842F90E0821B930B541710F08D
:10361000CF96089501970895FC01918D828D98179A
:1036200061F0A28DAE0FBF2FB11D5D968C91928D72
:103630009F5F9F73928F90E008958FEF9FEF0895A3
:10364000FC01918D828D981731F0828DE80FF11D6C
:10365000858D90E008958FEF9FEF0895FC01918D87
:10366000228D892F90E0805C9F4F821B91098F7380
:103670009927089586E892E00E942E1B21E0892B6D
:1036800009F420E0822F089580E090E0892B29F052
:103690000E943A1B81110C9400000895FC01A48D36
:1036A000A80FB92FB11DA35ABF4F2C91848D90E064
:1036B00001968F739927848FA689B7892C93A08947
:1036C000B1898C91837080648C93938D848D9813D1
:1036D00006C00288F389E02D80818F7D8083089564
:1036E000EF92FF920F931F93CF93DF93EC0181E052
:1036F000888F9B8D8C8D98131AC0E889F9898081F9
:1037000085FF15C09FB7F894EE89FF896083E8892B
:10371000F98980818370806480839FBF81E090E01D
:10372000DF91CF911F910F91FF90EF900895F62EAA
:103730000B8D10E00F5F1F4F0F731127E02E8C8D44
:103740008E110CC00FB607FCFACFE889F989808189
:1037500085FFF5CFCE010E944E1BF1CFEB8DEC0F14
:10376000FD2FF11DE35AFF4FF0829FB7F8940B8FA6
:10377000EA89FB8980818062CFCFCF93DF93EC0110
:10378000888D8823B9F0AA89BB89E889F9898C9149
:1037900085FD03C0808186FD0DC00FB607FCF7CF05
:1037A0008C9185FFF2CF808185FFEDCFCE010E9405
:1037B0004E1BE9CFDF91CF910895DC011696ED9174
:1037C000FC91179712968C91481B477081E090E00E
:1037D00001C0880F4A95EAF7E60FF11D30812223D8
:1037E00019F0832B8083089580958323FBCFFB0101
:1037F0004181DC0112962C911297421768F01396C2
:103800002C911397241740F0608115962C91621724
:1038100018F424810C94DD1B0895DB01ED91FC91DB
:1038200009940F931F93CF93DF931F92CDB7DEB709
:103830000091290310912A03E0915803F091590354
:1038400082E0099530E020E04AE0B80187E293E0A9
:103850000E940D1C182FE0915803F091590383E04A
:103860000995E0915803F091590380E009951123DF
:10387000B9F16091290370912A039E012F5F3F4F98
:1038800046E487E293E00E940D1C89818093270320
:103890006091290370912A039E012F5F3F4F47E4F7
:1038A00087E293E00E940D1C898180932803609138
:1038B000290370912A0330E020E048E487E293E096
:1038C0000E940D1C809332036091290370912A039A
:1038D0002AE533E047E187E293E00E940D1C11E006
:1038E000812F0F90DF91CF911F910F9108950F932A
:1038F0001F93CF93DF938C01C3E2D3E0EDA9FEA920
:1039000082E00995EDA9FEA981E0099530E020E06B
:1039100044E1B80187E293E00E940D1C2AE533E000
:1039200047E1B80187E293E00E940D1CEDA9FEA9D2
:1039300080E0DF91CF911F910F910994EF92FF9258
:103940000F931F93CF93DF93082F162FC42FD42FDD
:10395000F82EF40EEE24EA948F2D8D1BD83080F5CE
:103960008C2F887F800F9C2F96959695969528EFA3
:10397000929FC00D1124CC23C1F197E0C92760911B
:10398000290370912A0380934303109344031092F8
:103990004603CF5FC7708FEF90E001C0880FCA95D4
:1039A000EAF78093450323E433E04BE387E293E0B7
:1039B000DF91CF911F910F91FF90EF900C940D1C10
:1039C0006091290370912A03809343031093440369
:1039D00010924603E092450323E433E04BE387E291
:1039E00093E00E940D1CD850B7CFDF91CF911F916B
:1039F0000F91FF90EF9008950F931F93CF93DF9354
:103A0000182FC62F042FD62FD20F402F6C2F812FA7
:103A10000E949E1CCF5FCD13F8CFDF91CF911F91F5
:103A20000F910895FF920F931F93CF93DF93C82FA9
:103A3000D62F142FF22E022F242F462F682F87E225
:103A400093E00E943A18882359F02F2D412F6D2FB3
:103A50008C2FDF91CF911F910F91FF900C94FC1C44
:103A6000DF91CF911F910F91FF9008950F93CF9306
:103A7000DF93C82FD62F01E02FE2462F682F87E271
:103A800093E00E943A18882341F04FE26D2F8C2F6B
:103A9000DF91CF910F910C949E1CDF91CF910F91EC
:103AA00008950F931F93CF93DF93D82FC62F0CE069
:103AB00021E0462F682F87E293E00E943A1888237E
:103AC00071F16091290370912A03D0934303C0934D
:103AD000440311E0109346038FEF8093450323E4E2
:103AE00033E04BE387E293E00E940D1C60912903D1
:103AF00070912A03D0934303C85FC093440310938B
:103B0000460380EF8093450323E433E04BE387E2F1
:103B100093E0DF91CF911F910F910C940D1CDF91D9
:103B2000CF911F910F9108950F931F93CF93E09121
:103B30003503F0913603309719F087E293E0099549
:103B40000091290310912A03E0915803F091590341
:103B500082E00995E0915803F091590381E00995BD
:103B600030E020E045E1B80187E293E00E940D1CBF
:103B7000C82F882341F02AE533E047E1B80187E206
:103B800093E00E940D1CE0915803F091590380E0EE
:103B900009958C2FCF911F910F9108950B96FC01E1
:103BA000849108950A96FC0184910895FC01849102
:103BB00008950E94D61D882321F0823011F083E001
:103BC000089586E00895FC01E60FF11D849190E0D0
:103BD000982F88273196E4918E0F911D089568E003
:103BE0000C94E31D66E00C94E31DBF92CF92DF922C
:103BF000EF92FF920F931F93CF93DF938C01E62EEA
:103C0000DC011496CD91DC91CE010E94D61DF82ED8
:103C1000F801848195810E94D91DB82EF1E0CC2451
:103C2000CA94FF1202C02FE0C22ED80114968D91C3
:103C30009C910E94D21DF82EF801848195810E94EA
:103C4000CE1DD82ED80114968D919C910E94EF1D07
:103C5000B0E6BE1520F5009711F1C80FD91F91E607
:103C6000F92EDE1468F5D80150961C9250975396A1
:103C70001C92539754961C92549751961C925197AC
:103C800052961C92D0E0C0E0CE01DF91CF911F91FF
:103C90000F91FF90EF90DF90CF90BF900895F801C3
:103CA000848195810E94F21DF0E4FE1538F400979E
:103CB00029F0C80FD91F81E4F82ED3CF6196D1CF58
:103CC000DF1488F28B2D90E0FE0124912F3F29F420
:103CD0002196FD1441F2F394F7CFFE104BC0D801AA
:103CE00014968D919C910E94D61D9E012F5F3F4F8F
:103CF000FE01882311F08230E1F48491D8015396BB
:103D00008C935397F901249154962C935497FE0168
:103D10003396E4915096EC935097FE013496E491DB
:103D20005196EC935197FE013596E4915296EC939F
:103D3000ABCF8491982F9F709250D80152969C934C
:103D4000529782958F7051968C935197F9012491D7
:103D5000822F8F7054968C93549722952F70539680
:103D60002C935397FE013296E491E295EF705096B2
:103D7000EC938ACF3296E491EC21E80FF92FF11DF4
:103D8000CE0FDF1FA6CF5F926F927F928F929F928E
:103D9000AF92BF92CF92DF92EF92FF920F931F9359
:103DA000CF93DF93EC01562E142F622F0E94F51D46
:103DB0006C0180E0C114D104B1F08C819D810E941E
:103DC000D91DB82EFB88EC888989580E1E198A895E
:103DD000181B0E2D2F2D412F652DCE010E943A1854
:103DE000811111C08889DF91CF911F910F91FF90B0
:103DF000EF90DF90CF90BF90AF909F908F907F908B
:103E00006F905F900895CB0CD11C87E0F80EF6946C
:103E1000F694F694E10E4E01ECE18E0E911C6F2C9F
:103E2000712C1E15F9F2052D560111C0F501849172
:103E30006A817B810C8F1D8F1F8E8E8F94014BE3C7
:103E4000CE010E940D1CFFEFAF1ABF0A085F8A2D3A
:103E50008C198F1558F3C60CD71C1F5FE2CFEF9259
:103E6000FF920F931F93CF93DF93F82E062FE42E2C
:103E7000152FE0913C03F0913D0387E293E0099513
:103E8000080FCE2DD12F10E02991211108C0812FCC
:103E9000DF91CF911F910F91FF90EF900895402FE8
:103EA0006F2D87E293E00E94C31EF80E180FECCF2F
:103EB0009F92AF92BF92CF92DF92EF92FF920F93B9
:103EC0001F93CF93DF937C018B01942E69018AE0CD
:103ED000481739F195E1491709F486C0F801C28104
:103EE000D381F2E39F1609F431C1F91508F4D3C068
:103EF00085E1981609F42FC197E1991609F43BC1A1
:103F0000A4E19A12F7C0EE81FF818D818E0F9F2F61
:103F1000911D11928E179F07E1F7CE010E94FB17AA
:103F2000E9C0DB011496ED91FC9130E020E04FEF09
:103F300061E0C701099580E090E9A92E98E2B92EC9
:103F4000F501C491811110C081E0CF3F49F04C2FA1
:103F5000B801C7010E942218882309F4BFCF80E06E
:103F6000BFEFAB1ABB0AECCF4FEFCF3F89F3CE3F89
:103F700009F4B4CFC03F98F7C03E38F04C2F4F70D3
:103F8000B801C7010E942A18EACFC03D38F04C2F73
:103F90004F70B801C7010E943218E1CFC03CF8F061
:103FA000D8011496ED91FC9130E020E040E064E00F
:103FB000C7010995C295C07FCE5FD0E0CE010E94B7
:103FC0000218D8011496ED91FC9130E020E041E018
:103FD00064E0C7010995CE010E940218C0CFC7FD59
:103FE000BECF8C2F90E0F8CFFB01C281D38140E09F
:103FF000C7010E942A1842E0B801C7010E94321886
:104000004C81486BB801C7010E94221840E4B801F6
:10401000C7010E94221841E0B801C7010E942A1876
:104020002E813F81D8011496ED91FC9140E466E029
:10403000C701099540E0B801C7010E94321840E06D
:10404000B801C7010E942A1841E0B801C7010E94C7
:1040500032184C81486BB801C7010E94221840E415
:10406000B801C7010E94221841E0B801C7010E94AF
:104070002A182E813F81205C3F4FD8011496ED9184
:10408000FC9140E466E0C701099540E0B801C70132
:104090000E94321823CFB6E49B1609F47BC0E7E4F4
:1040A0009E1609F47BC0FBE39F1224C0D601119633
:1040B0009C91119713968C9138E0390F813031F033
:1040C000833011F0392F02C0392F985021E04B81F5
:1040D000491708F420E041E0391708F040E091E08A
:1040E0005A81351708F490E0322F342B932379F45A
:1040F000242369F481E0DF91CF911F910F91FF900C
:10410000EF90DF90CF90BF90AF909F900895F60111
:10411000128100E0F12C843048F490E0FC01EC5E68
:10412000FE4FF080805F9E4FDC010C9117FF04C0B2
:10413000B601CE010E94F71BF60180818F0D8083AE
:104140008181800F8183110F89F7D4CFB601CE0111
:104150000E94F71BCFCFCE010E94E517882359F2AA
:10416000EE81FF818D818E0F9F2F911D11928E17F1
:104170009F07E1F7BFCFD6011C928A8111968C93DD
:1041800011978D81815012968C9312978B81139683
:104190008C93B0CF8D81F6018083ACCF8981D6011D
:1041A0008C93A8CF2F923F924F925F926F927F9203
:1041B0008F929F92AF92BF92CF92DF92EF92FF9237
:1041C0000F931F93CF93DF93C82F81E390E10E9459
:1041D0009C178EE1582E5C0E46E351E0652D8C2F26
:1041E0000E942F1F80E39BE00E949C179AE0692E9B
:1041F0006C0EE0913C03F0913D0387E293E009955A
:1042000097E19C0F792E781A28E3A22E21E0B22E96
:1042100044244394F50161915F01611129C081E358
:1042200090E10E949C174AE351E0652D85E38C0FD5
:104230000E942F1F63E26C0F82E08C0F0E94361DDC
:1042400060E26C0F8DE28C0FDF91CF911F910F9187
:10425000FF90EF90DF90CF90BF90AF909F908F90A6
:104260007F906F905F904F903F902F900C94511DD6
:1042700087E293E00E94F51D7C0180E0E114F104E7
:10428000F1F080912B0390912C030E94D91D982E60
:10429000D0903A03C0903B03D0913903DF5FD70D34
:1042A00010913803160D0D2D2C2D412F6D2F87E207
:1042B00093E00E943A18811104C080913703680E80
:1042C000A9CFE90CF11C07E00D0D069506950695A2
:1042D0008FEF8C0DD80F2D2E2C18802E912C2D1693
:1042E00061F3312E67011AC0F601849160912903B0
:1042F00070912A03D09343033092440340924603C3
:104300008093450323E433E04BE387E293E00E948C
:104310000D1CFFEFCF1ADF0A88E0380E8C2D8E19A6
:10432000801710F3E80CF91CD150D9CFDF92EF922F
:10433000FF920F931F93CF93DF93EC01D62E1CAD0A
:104340000BAD7C0184E0E80EF11CE98DFA8DC7010C
:104350000995412F480F2D2D602FC7010E94C31EC4
:104360009BAD890F8BAF81E090E0DF91CF911F91E2
:104370000F91FF90EF90DF900895089590E080E016
:104380000895CF93DF93FC0101900020E9F7319766
:10439000AF01481B590BBC0186E892E00E94D01A7D
:1043A000EC0142E050E06CE371E086E892E00E94AC
:1043B000D01A8C0F9D1FDF91CF9108958091080135
:1043C000909109018130910591F01CF4892B41F005
:1043D000089582309105E9F1039709F444C00895E6
:1043E00081E090E0909309018093080108958FE3A4
:1043F00091E00E94C12180916003811105C081E09C
:10440000809360030E94111C8091290390912A03DC
:104410000E94771C88E690E00E949C174AE451E0D5
:104420006AE085E00E942F1F49E551E06EE185E0DA
:104430000E942F1F48E651E067E385E00E942F1F8E
:1044400086E791E00E94C1210E94941D8111E2CF74
:10445000089588E891E00E94C1218CE00E948518AF
:10446000892BD9F3089582E090E0BCCF1F920F9280
:104470000FB60F9211242F933F938F939F93AF9377
:10448000BF938091650290916602A0916702B091FE
:1044900068023091640223E0230F2D3758F501960E
:1044A000A11DB11D20936402809365029093660262
:1044B000A0936702B09368028091690290916A02AA
:1044C000A0916B02B0916C020196A11DB11D809369
:1044D000690290936A02A0936B02B0936C02BF9141
:1044E000AF919F918F913F912F910F900FBE0F90A1
:1044F0001F90189526E8230F0296A11DB11DD2CF5B
:104500001F920F920FB60F9211242F933F934F9348
:104510005F936F937F938F939F93AF93BF93EF932B
:10452000FF9386E892E00E944E1BFF91EF91BF91AE
:10453000AF919F918F917F916F915F914F913F913B
:104540002F910F900FBE0F901F9018951F920F92F2
:104550000FB60F9211242F938F939F93EF93FF9396
:10456000E0919602F09197028081E0919C02F09197
:104570009D0282FD1BC0908180919F028F5F8F738F
:104580002091A002821741F0E0919F02F0E0EA57EB
:10459000FD4F958F80939F02FF91EF919F918F9197
:1045A0002F910F900FBE0F901F9018958081F4CF20
:1045B000109289021092880288EE93E0A0E0B0E0A9
:1045C00080938A0290938B02A0938C02B0938D0209
:1045D0008CE191E0909387028093860285EC90E0D5
:1045E000909393028093920284EC90E090939502D2
:1045F0008093940280EC90E09093970280939602CF
:1046000081EC90E0909399028093980282EC90E084
:1046100090939B0280939A0286EC90E090939D0287
:1046200080939C0210929F021092A0021092A1020D
:104630001092A20210922603109225038EE291E0BE
:10464000909324038093230310925E0310925F03E0
:104650001092600310922C0310922B0310922E03E1
:1046600010922D031092300381E080932F0382E299
:10467000809331031092360310923503EAE4F3E09D
:1046800028E533E08FEF81932E173F07E1F791E0A4
:10469000909347032AE937E130933D0320933C038D
:1046A00090933E0310923F031092400390E4909346
:1046B00041031092420329E937E1309359032093D3
:1046C00058032AE031E030932A032093290398E02D
:1046D00090934F0399E0909350039AE09093510385
:1046E0009BE09093520394E09093530395E0909352
:1046F000540396E09093550397E09093560392E10C
:1047000090934E039EE090934C039FE090934D0353
:1047100091E190934B0390E19093570380934A0368
:104720000E94111C8EE291E0909324038093230356
:104730000895789484B5826084BD84B5816084BD19
:1047400085B5826085BD85B5816085BD80916E002F
:10475000816080936E001092810080918100826060
:10476000809381008091810081608093810080919D
:1047700080008160809380008091B100846080938C
:10478000B1008091B00081608093B00080917A0088
:10479000846080937A0080917A00826080937A00AE
:1047A00080917A00816080937A0080917A0080689D
:1047B00080937A001092C100E0919602F0919702E6
:1047C00082E08083E0919202F09193021082E09166
:1047D0009402F09195028FEC808310929E02E091FA
:1047E0009A02F0919B0286E08083E0919802F0911A
:1047F0009902808180618083E0919802F091990212
:10480000808188608083E0919802F0919902808194
:1048100080688083E0919802F091990280818F7D79
:10482000808360E082E00E943A1960E083E00E94A9
:104830003A1962E08CE00E943A1962E08DE00E9431
:104840003A1980916003811105C081E08093600373
:104850000E94111C8091290390912A030E94771CC9
:10486000AA24A39493E0992E80913203883281F593
:10487000C0912703C295C695C7701091280316955D
:10488000169516958C2E880C880C880CF12CD0E08F
:10489000EF2C00E0702E7D2AC12CB12CD12C8B2D59
:1048A000872980934703212F4C2F6C2D8E2D0E943A
:1048B000121DD39420E2B20EC10E88E0D812EFCFC1
:1048C0000C5FEC0E003231F7DF5FF80CD43001F7EB
:1048D000A0924703809132038F71823058F082E0BA
:1048E0000E94D22082E08093470381E00E94D22080
:1048F0009092470380E00E94D22080E099E20E94DB
:104900009C17809128038B3308F074C043E951E071
:1049100069E085E30E942F1F42EB51E062E18DE4E4
:104920000E942F1FA09247030E94941D81119CCFCB
:104930000E94AB1A4B015C0180EDC82E87E0D82E97
:10494000E12CF12C0E94AB1A681979098A099B099C
:10495000683E734081059105A8F321E0C21AD10891
:10496000E108F10888EE880E83E0981EA11CB11CB6
:10497000C114D104E104F10429F7C0E0D0E08DE0D6
:104980000E948518892BA1F48CEB91E00E94C12133
:1049900080910801909109010196909309018093FB
:1049A00008010E94DE218DE00E948518892BD9F331
:1049B0008CE00E948518892BA1F481ED91E00E9482
:1049C000C1218091080190910901019790930901FB
:1049D000809308010E94DE218CE00E948518892BBB
:1049E000D9F3209761F20E943A1B882341F20E947A
:1049F0000000C5CF43EA51E066E381E091CFEE0FBE
:0E4A0000FF1F0590F491E02D0994F894FFCF6C
:104A0E00084000000080E4010100581F00017619E3
:104A1E00000100FF0100FF0000000000701BD01A13
:104A2E00FD1ABD1B2E1B0C1B201B00000000962127
:104A3E00D01ABE21BD215500380067000D0A002096
:104A4E00696E2063617365203100446F6F7231208F
:104A5E00697320636C6F736500446F6F72322069E7
:104A6E007320636C6F736500414C4C204973204773
:104A7E006F6F6421210020696E20636173652031A0
:104A8E00207E7E7E7E7E7E0020696E206361736551
:104A9E00203200636F64652E676F6F676C652E63DF
:104AAE006F6D00636F64652E676F6F676C652E6345
:104ABE006F6D2F702F7538676C69620020636C699B
:104ACE00636B656420646F776E20627574746F6EAD
:104ADE000020636C69636B65642075702062757469
:044AEE00746F6E0073
:00000001FF
