:100000000C9462000C948A000C948A000C948A0070
:100010000C948A000C948A000C948A000C948A0038
:100020000C948A000C948A000C948A000C948A0028
:100030000C948A000C948A000C948A000C948A0018
:100040000C942C020C948A000C949C020C94760262
:100050000C948A000C948A000C948A000C948A00F8
:100060000C948A000C948A000000000025002800EF
:100070002B0000000000240027002A0000000000E0
:1000800023002600290004040404040404040202DA
:100090000202020203030303030301020408102007
:1000A0004080010204081020010204081020000012
:1000B0000008000201000003040700000000000027
:1000C0000000060411241FBECFEFD8E0DEBFCDBF75
:1000D00011E0A0E0B1E0EAEBF8E002C005900D927B
:1000E000A633B107D9F721E0A6E3B1E001C01D9224
:1000F000A23EB207E1F710E0C2E6D0E004C02197CB
:10010000FE010E945504C136D107C9F70E94CE02F4
:100110000C945B040C94000090E0FC01E255FF4F4E
:100120002491FC01E656FF4F3491FC01EA57FF4F42
:10013000E491EE23C1F1222339F02330E9F090F469
:10014000213001F1223011F1F0E0EE0FFF1FE458F1
:10015000FF4FA591B491EC91E32381E090E029F564
:1001600080E008952730A9F02830C9F0243061F7E5
:10017000809180008F7D03C0809180008F77809375
:100180008000E2CF84B58F7784BDDECF84B58F7DCC
:10019000FBCF8091B0008F778093B000D5CF809156
:1001A000B0008F7DF9CF80E090E00895CF93DF938A
:1001B00090E0FC01E656FF4F24918A579F4FFC01C7
:1001C00084918823C9F090E0880F991FFC01EE58B4
:1001D000FF4FA591B491FC01E859FF4FC591D4910F
:1001E00061110DC09FB7F8948C91209582238C9358
:1001F0008881282328839FBFDF91CF9108956230A3
:1002000051F49FB7F8943C91822F809583238C936F
:10021000E8812E2BEFCF8FB7F894EC912E2B2C93F7
:100220008FBFEACFAF92BF92CF92DF92EF92FF9251
:100230000F931F93CF93DF936C017B018B01040F0E
:10024000151FEB015E01AE18BF08C017D10759F0AA
:100250006991D601ED91FC910190F081E02DC601EC
:100260000995892B79F7C501DF91CF911F910F91E6
:10027000FF90EF90DF90CF90BF90AF900895FC017A
:10028000538D448D252F30E0842F90E0821B930BFB
:10029000541710F0CF96089501970895FC01918DA1
:1002A000828D981761F0A28DAE0FBF2FB11D5D96A4
:1002B0008C91928D9F5F9F73928F90E008958FEF46
:1002C0009FEF0895FC01918D828D981731F0828DFA
:1002D000E80FF11D858D90E008958FEF9FEF089551
:1002E000FC01918D228D892F90E0805C9F4F821BB5
:1002F00091098F739927089585E491E00E94700118
:1003000021E0892B09F420E0822F089580E090E01D
:10031000892B29F00E947C0181110C940000089522
:10032000FC01A48DA80FB92FB11DA35ABF4F2C916A
:10033000848D90E001968F739927848FA689B78961
:100340002C93A089B1898C91837080648C93938D58
:10035000848D981306C00288F389E02D80818F7DFB
:1003600080830895EF92FF920F931F93CF93DF93B3
:10037000EC0181E0888F9B8D8C8D98131AC0E889E1
:10038000F989808185FF15C09FB7F894EE89FF89B0
:100390006083E889F98980818370806480839FBF4E
:1003A00081E090E0DF91CF911F910F91FF90EF904E
:1003B0000895F62E0B8D10E00F5F1F4F0F7311275E
:1003C000E02E8C8D8E110CC00FB607FCFACFE88999
:1003D000F989808185FFF5CFCE010E949001F1CF90
:1003E000EB8DEC0FFD2FF11DE35AFF4FF0829FB70D
:1003F000F8940B8FEA89FB8980818062CFCFCF93FD
:10040000DF93EC01888D8823B9F0AA89BB89E8893C
:10041000F9898C9185FD03C0808186FD0DC00FB6E2
:1004200007FCF7CF8C9185FFF2CF808185FFEDCF60
:10043000CE010E949001E9CFDF91CF910895FC0198
:1004400001900020E9F73197AF01481B590BBC011F
:1004500085E491E00C9412011F920F920FB60F9257
:1004600011242F933F938F939F93AF93BF938091CA
:10047000410190914201A0914301B091440130911A
:10048000400123E0230F2D3758F50196A11DB11D22
:10049000209340018093410190934201A093430136
:1004A000B093440180913C0190913D01A0913E01A7
:1004B000B0913F010196A11DB11D80933C01909325
:1004C0003D01A0933E01B0933F01BF91AF919F9139
:1004D0008F913F912F910F900FBE0F901F90189505
:1004E00026E8230F0296A11DB11DD2CF1F920F92B5
:1004F0000FB60F9211242F933F934F935F936F93F7
:100500007F938F939F93AF93BF93EF93FF9385E474
:1005100091E00E949001FF91EF91BF91AF919F9167
:100520008F917F916F915F914F913F912F910F909C
:100530000FBE0F901F9018951F920F920FB60F923B
:1005400011242F938F939F93EF93FF93E091550185
:10055000F09156018081E0915B01F0915C0182FD98
:100560001BC0908180915E018F5F8F7320915F012E
:10057000821741F0E0915E01F0E0EB5BFE4F958F5A
:1005800080935E01FF91EF919F918F912F910F903A
:100590000FBE0F901F9018958081F4CFCF93DF93FB
:1005A000CDB7DEB7A1970FB6F894DEBF0FBECDBFB3
:1005B000789484B5826084BD84B5816084BD85B53E
:1005C000826085BD85B5816085BD80916E0081604A
:1005D00080936E00109281008091810082608093F0
:1005E00081008091810081608093810080918000F2
:1005F0008160809380008091B10084608093B1001D
:100600008091B00081608093B00080917A00846016
:1006100080937A0080917A00826080937A00809142
:100620007A00816080937A0080917A00806880935C
:100630007A001092C10060E083E00E94D60062E080
:1006400084E00E94D60062E085E00E94D600E0913E
:100650005501F091560182E08083E0915101F091C3
:1006600052011082E0915301F09154018FEC80838C
:1006700010925D01E0915901F0915A0186E080836A
:10068000E0915701F0915801808180618083E09171
:100690005701F0915801808188608083E091570173
:1006A000F0915801808180688083E0915701F0913A
:1006B000580180818F7D808383E00E948C0090931D
:1006C0003701809336018AE0882E912CA12CB12C21
:1006D00000E010E085E00E948C00892B21F410924C
:1006E0003B0110923A0183E00E948C009093390103
:1006F000809338012091360130913701821793079A
:1007000009F45CC080913A0190913B01019790936C
:100710003B0180933A0182E191E00E941F028DE14A
:1007200091E00E941F028BE291E00E941F02C090A4
:100730003A01D0903B010D2C000CEE08FF08F7FEAB
:100740004FC06DE285E491E00E94B2012227332779
:10075000A9012C193D094E095F0919A2CE01819604
:100760007C01CA01B901A50194010E943304605DB6
:10077000F70162937F01211531054105510589F784
:10078000E114F10419F0C7010E941F028DE191E00C
:100790000E941F0280913801909139019093370196
:1007A000809336010115110509F494CF0E947C0154
:1007B000882309F48FCF0E9400008CCF80E291E063
:1007C0000E941F028DE191E00E941F0280913A0178
:1007D00090913B01019690933B0180933A01A3CF06
:1007E000A701960119A2CE0181967C01CA01B90127
:1007F000A50194010E943304605DF70162937F01BB
:10080000211531054105510589F7BACFE5E4F1E03D
:100810001382128288EE93E0A0E0B0E08483958397
:10082000A683B78384E091E09183808385EC90E098
:100830009587848784EC90E09787868780EC90E0AA
:10084000918B808B81EC90E0938B828B82EC90E09B
:10085000958B848B86EC90E0978B868B118E128E15
:10086000138E148E0895A1E21A2EAA1BBB1BFD0144
:100870000DC0AA1FBB1FEE1FFF1FA217B307E4077F
:10088000F50720F0A21BB30BE40BF50B661F771FD7
:10089000881F991F1A9469F76095709580959095B7
:1008A0009B01AC01BD01CF010895EE0FFF1F059024
:0A08B000F491E02D0994F894FFCFB5
:1008BA0000000000B20112013F01FF0170014E0168
:1008CA00620120636F756E74202D2D20000D0A00C1
:1008DA0020636F756E74202B2B200020636F756E5A
:0608EA0074203D20000017
:00000001FF
